:1070000055C000007FC000007DC000007BC00000B4
:1070100079C0000077C0000075C0000073C0000098
:1070200071C000006FC000001DC200006BC00000F6
:1070300069C0000067C0000065C0000063C00000B8
:1070400061C000005FC000005DC000005BC00000C8
:1070500059C0000057C0000055C0000053C00000D8
:1070600051C000004FC000004DC000004BC00000E8
:1070700049C0000047C0000045C0000043C00000F8
:1070800041C000003FC000003DC000003BC0000008
:1070900039C0000037C0000035C0000033C0000018
:1070A00031C000002FC000002DC0000011241FBE01
:1070B000CFEFDAE0DEBFCDBF04B603FE0EC0809195
:1070C00054019091550182549C4D39F41092550110
:1070D00010925401E0E0F0E0099511E0A0E0B1E089
:1070E000E2E1F8E702C005900D92AA34B107D9F7A2
:1070F00011E0AAE4B1E001C01D92A435B107E1F7A7
:107100006ED085C37DCF1F9380914C018F778132E4
:1071100009F05FC080914D01893009F05AC080911B
:10712000E800877F8093E8008091E80082FFFCCF31
:107130008091F1009091F100AC018FEF4F3F580723
:1071400019F4109200013FC083E0FA0180935700C8
:10715000E89507B600FCFDCFA0E0B0E011E020917B
:10716000F3008091F200322F20E090E0822B932BED
:10717000892B49F48091E8008B778093E800809117
:10718000E80082FFFCCF8091F100682F8091F10030
:10719000782FFD01EE0FFF1FE40FF51F0B01109379
:1071A0005700E89511241196A034B105C1F685E089
:1071B000FA0180935700E89507B600FCFDCF81E106
:1071C00080935700E8958091E8008B778093E800E2
:1071D000CED01F91089581E061EC42E3B4C084B742
:1071E000877F84BF88E10FB6F89480936000109287
:1071F00060000FBE81E085BF82E085BF16D1789424
:1072000001C0F1D2809100018823D9F78091E0007C
:1072100081608093E00082E49CED9093550180931F
:1072200054012CE088E190E00FB6F894A895809383
:1072300060000FBE20936000FFCFFA01913029F467
:1072400086E191E022E130E012C0923029F488E238
:1072500091E022E230E00BC0913229F081E091E030
:1072600025E130E004C08AE391E029E030E0918339
:107270008083C90108959C014091520150915301AE
:107280004617570718F4F90190E042C061157105DF
:1072900011F0AB01F8CF8091E8008E778093E80081
:1072A00040E050E0F0CF8EB3882309F446C085302B
:1072B00009F445C08091E80083FD43C08091E80057
:1072C00082FD35C08091E80080FF22C08091F300EC
:1072D0009091F200782F60E0292F30E0262B372B99
:1072E00007C081918093F100415050402F5F3F4F84
:1072F0004115510519F02830310598F390E02830F8
:10730000310509F491E08091E8008E778093E800E0
:107310004115510541F6992331F609C08EB38823F2
:1073200061F0853061F08091E80083FD0AC08091B2
:10733000E80082FFF3CF80E0089582E0089583E0C3
:10734000089581E008958F708093E9008091EB00AB
:1073500081608093EB001092ED006093EC0040930D
:10736000ED008091EE00881F8827881F0895809186
:107370004C0188238CF403C08EB38823B1F0809134
:10738000E80082FFF9CF8091E8008B778093E800D6
:1073900008958EB3882349F08091E80080FFF9CFEB
:1073A0008091E8008E778093E8000895EF92FF9235
:1073B0000F931F934AD051D008ED10E0F80180815F
:1073C0008F77808380818068808380818F7D8083B8
:1073D00019BC1EBA10924A0180EEE82EF12CF7017A
:1073E00080818B7F8083F80180818160808380E051
:1073F00060E042E0A8DFE1EEF0E080818E7F8083F4
:10740000E2EEF0E08081816080838081886080830B
:10741000F70180818E7F8083F80180818061808385
:107420001F910F91FF90EF900895E8EDF0E08081BB
:107430008F7E8083E7EDF0E080818160808384E04F
:1074400082BF81E080934B01B1CFE8EDF0E0808115
:107450008E7F80831092E20008951092DA001092DD
:10746000E10008951F920F920FB60F9211242F93EF
:107470003F934F935F936F937F938F939F93AF93BC
:10748000BF93EF93FF938091DA0080FF1BC0809140
:10749000D80080FF17C08091DA008E7F8093DA00D9
:1074A0008091D90080FF0BC080E189BD82E189BD58
:1074B00009B400FEFDCF81E08EBB94D103C019BC9E
:1074C0001EBA90D18091E10080FF17C08091E20048
:1074D00080FF13C08091E2008E7F8093E200809154
:1074E000E20080618093E2008091D8008062809306
:1074F000D80019BC85E08EBB75D18091E10084FF76
:107500002EC08091E20084FF2AC080E189BD82E123
:1075100089BD09B400FEFDCF8091D8008F7D809396
:10752000D8008091E1008F7E8093E1008091E2009D
:107530008F7E8093E2008091E20081608093E20080
:1075400080914A01882311F084E007C08091E30014
:1075500087FD02C081E001C083E08EBB43D18091F2
:10756000E10083FF21C08091E20083FF1DC0809174
:10757000E100877F8093E10082E08EBB10924A0198
:107580008091E1008E7F8093E1008091E2008E7F08
:107590008093E2008091E20080618093E20080E0CD
:1075A00060E042E0D0DE1ED1FF91EF91BF91AF913C
:1075B0009F918F917F916F915F914F913F912F910B
:1075C0000F900FBE0F901F9018951F93DF93CF93CE
:1075D00000D0CDB7DEB7ECE4F1E08091F10081930B
:1075E00081E0E435F807C9F78EDD8091E80083FF7C
:1075F000E5C080914C0190914D01953009F46FC028
:10760000963040F4913091F1913070F0933009F060
:10761000D5C02CC0983009F4A4C0993009F4B3C087
:10762000963009F0CBC07DC0803811F490E014C0D2
:10763000823809F0C3C0809150018F708093E900B7
:107640008091EB0090E025E0969587952A95E1F7EB
:10765000982F91701092E9008091E800877F8093C5
:10766000E8009093F1001092F10086C0882319F091
:10767000823009F0A3C08F71823009F09FC08091E1
:107680004E01882331F5209150012F7009F496C0E6
:107690002093E9008091EB0080FF1BC0933021F420
:1076A0008091EB00806213C08091EB008061809339
:1076B000EB0081E090E002C0880F991F2A95E2F765
:1076C0008093EA001092EA008091EB00886080933A
:1076D000EB001092E9008091E800877F50C088237A
:1076E00009F06CC010914E011F778091E300807803
:1076F000812B8093E3008091E800877F8093E800EE
:1077000036DE8091E80080FFFCCF8091E300806846
:107710008093E300112311F482E001C083E08EBB6B
:107720004DC08058823008F049C080914E01909140
:107730004F0160915001AE014F5F5F4F7EDDBC0194
:10774000009709F43BC08091E800877F8093E800B0
:1077500089819A8190DD8091E8008B778093E800A1
:107760002DC0803859F58091E800877F8093E8002C
:1077700080914A018093F1008091E8008E77809398
:10778000E800F5DD1BC08823C9F490914E019230CA
:10779000A8F48091E800877F8093E80090934A01E5
:1077A000E6DD80914A01882331F48091E30087FD72
:1077B00002C081E001C084E08EBB0DDD8091E80055
:1077C00083FF0AC08091E800877F8093E800809162
:1077D000EB0080628093EB000F900F90CF91DF91D0
:1077E0001F91089508951F938EB3882371F010910F
:1077F000E9008091EC001092E9008091E80083FF9D
:1078000001C0E3DE1F701093E9001F910895F89402
:02781000FFCFA8
:107812000106DCFF09FBA1010902150025FF75081D
:107822009682009102C01201100100000008EB03D1
:10783200672001000000000109022200010100800E
:1078420032090400000103000000092111010001B6
:0A7852002215000705810340000520
:040000030000700089
:00000001FF
